:1070000065C00000BAC10000B8C10000B6C10000F0
:10701000B4C10000B2C10000B0C10000AEC10000A8
:10702000ACC10000AAC10000A8C10000A6C10000B8
:10703000A4C10000A2C10000A0C100009EC10000C8
:107040009CC100009AC1000098C1000096C10000D8
:1070500094C1000092C1000090C100008EC10000E8
:107060008CC100008AC1000088C1000086C10000F8
:1070700084C1000082C1000080C100007EC1000008
:107080007CC100007AC1000078C1000076C1000018
:1070900074C1000072C1000070C100006EC1000028
:1070A0006CC100006AC1000068C100000005000357
:1070B00046756C6C00000500044F70636F64653F9B
:1070C00000000500004572726F72000011241FBE9F
:1070D000CFEFDAE0DEBFCDBF11E0A0E0B1E0E8E540
:1070E000F8E702C005900D92AC31B107D9F721E065
:1070F000ACE1B1E001C01D92A832B207E1F701D0C6
:10710000A9C3CDB7DEB7C456D109DEBFCDBF1124A8
:1071100084B714BE99E288E10FB6F894A8958093DD
:1071200060000FBE909360002FEF83EC99E0215038
:1071300080409040E1F700C0000084E0809381002F
:1071400080E090E071D3882321F060E080E090E05F
:1071500073D381E090E068D3843021F064E081E073
:1071600090E06AD382E08093C80088E18093C900F0
:1071700086E08093CA0080E18093CC008FE085B9DF
:1071800087E084B92E9A269A5C9A549A479A3F9A35
:1071900081E08DBDAFD18BD110921F0110921E01E5
:1071A00055245394FE0131967F0184E0482EA12C92
:1071B000B12C80911F01811189C086E290E0F7D047
:1071C000892B09F483C050921E0168E682E090E0AA
:1071D000D5D082FF0FC044E06CE682E090E0FDD0A5
:1071E000FFEF27E883E1F15020408040E1F700C045
:1071F0000000EBCFC2D1182F84E290E0D8D06C0110
:10720000123029F118F4113069F004C0133091F0F4
:10721000143061F14AE050E061EC70E7C701FBD245
:107220000AE00FC04CE050E065EB70E7C701F3D215
:107230000CE007C049E050E06CEA70E7C701EBD210
:1072400009E03701302E46018E189F0819C0809141
:1072500022019091230120912401309125012817CA
:10726000390720F4909325018093240119824A82E2
:1072700080912201909123019B838C8304E0E1CFD4
:10728000C401860D971D3A94FFEF3F1631F0F301CC
:1072900041913F0164E7A1D0F3CFB601600F711DAA
:1072A00084E290E0B2D040E26CE681E090E095D0DC
:1072B00068E681E090E062D08111FACF143031F4B9
:1072C00040E16CE681E090E088D044C0F501859112
:1072D00094910196E1F080912001909121010A970B
:1072E000B0F082E090E0A0D28E3EA1F180911E012C
:1072F000813069F4FFD0DBD01092850010928400B9
:107300001092210110922001A89510921E01A895BB
:10731000A895809184009091850094FF04C028B1C5
:10732000205828B901C0479820911C0130911D01B7
:107330008217930750F420912001309121012F5F93
:107340003F4F309321012093200190931D018093A2
:107350001C012FCF0FB6F894A8958091600088612A
:1073600080936000109260000FBE9ED080E090E09D
:10737000CC59DF4FDEBFCDBF089542CE20E52CBDF6
:107380002E98292F33272EBD0DB407FEFDCF8EBDBD
:107390000DB407FEFDCF6EBD0DB407FEFDCF1EBCC4
:1073A0000DB407FEFDCF2E9A8EB51CBC08950F9329
:1073B0001F93CF938C0168E6E1DFC82F68E6C80110
:1073C0000196DCDF2C2F30E0322F2227A901482B39
:1073D000CA01CF911F910F91089520E52CBD2E98E1
:1073E000292F33272EBD0DB407FEFDCF8EBD0DB462
:1073F00007FEFDCF6EBD0DB407FEFDCF4EBD0DB433
:1074000007FEFDCF2E9A1CBC08950F931F93CF93B8
:10741000DF93EC018B01472F55276CE6CE01DDDFB2
:10742000402F6CE6CE010196DF91CF911F910F9115
:10743000D4CFCF93DF93EC0140E16CE681E090E0A4
:10744000CCDF68E681E090E099DF8111FACF4FEF61
:107450006CE682E090E0C1DF42E06CE680E090E024
:10746000BCDFBE0184E090E0D0DF41E06CE681E06B
:1074700090E0B3DF68E681E090E080DF8111FACF31
:1074800068E683E090E07ADF823229F040E16CE642
:1074900081E090E0A2DF68E683E090E06FDF823277
:1074A000B1F6DF91CF910895EE27FF270994CF938E
:1074B00085E490E0BEDF87E190E0B6D18B3B91F4AC
:1074C00089E190E0B1D1C82F88E190E0ADD12C2FB7
:1074D00030E0322F2227280F311D309327012093CF
:1074E000260106C089E797EB909327018093260138
:1074F000CF9108950F931F93CF93DF9383E090E094
:1075000093D1853529F000E011E0C0E0D0E013C050
:1075100084E090E089D18A3AB1F701E011E0C5E05A
:10752000D0E0CE0181D1F80181938F012196C7313E
:10753000D105B9F7E8CFF80141918F0164E0CE01A0
:107540004CDF2196CC31D105B1F7C0E0DC2FD295CC
:10755000DD0FD07ED45F42E06D2F8EE190E03DDF05
:1075600042E06D2F8FE190E038DFCF5FC83071F7D8
:10757000DF91CF911F910F9108958F929F92AF92BB
:10758000BF92CF92DF92EF92FF920F931F93CF9310
:10759000DF93CDB7DEB7CC50D240DEBFCDBF88E29F
:1075A00090E005DF7C018E010F5F1F4F5E0143EF0E
:1075B000A41A4DEFB40A68014C01801A910AC40163
:1075C0008C0D9D1DAC14BD0431F068E7D7DEF601CB
:1075D00081936F01F4CFB701645F7D4F88E290E043
:1075E00014DF40E46CE681E090E0F7DE68E681E0DD
:1075F00090E0C4DE8111FACF6801FCE0EF2EF12C9F
:10760000F60141916F016CE6C701E7DEFFEFEF1A6B
:10761000FF0A42E1E416F10499F72F8130E0322F9E
:1076200022278885280F311D498550E0542F442793
:107630008A85480F511D8B8590E0982F88276C858F
:10764000860F911D4330510589F48933910508F067
:107650003EC0409124015091250184179507B8F14F
:107660004F5F5F4F4817590790F12DC025303240CA
:1076700070F5443051051CF54130510581F142301F
:10768000510529F510928500109284001092210175
:1076900010922001A8956FEF82E090E0CDD080910C
:1076A000260190912701C5DE109225011092240138
:1076B000109223011092220152E0F52E9AC046301A
:1076C00051056CF004C0253042E0340750F0809141
:1076D000260190912701ADDEFF24F3948AC0F12C9E
:1076E00088C010928500109284001092210110929F
:1076F0002001A89524503109909323018093220101
:10770000AC0141505109CA01880F892F881F990B7C
:107710009195A0E0B0E07C01DD24CC24CA01A0E07A
:10772000B0E049E0880F991FAA1FBB1F4A95D1F707
:10773000AA27BB278C299D29AE29BF29AC01BD01F1
:10774000420F531F611D711D413050476105710586
:1077500008F04DC02115F2E03F0718F474E0F72E51
:1077600002C062E0F62EA9014F775527452B19F08C
:107770002F5F3F4FF8CF60E070E0A1E0B3E045E05D
:10778000E42E51E1D52E6217730748F5F8014585BF
:1077900050E0542F4427C4844C29FC010A01A093D3
:1077A0005700E89511246E5F7F4FAB014F77552747
:1077B000452B89F4EE57F109B0935700E89507B6C9
:1077C00000FCFDCFE0925700E89507B600FCFDCF26
:1077D000D0925700E8950E5F1F4F0296D4CFF4E089
:1077E000FF1207C06EEE82E090E026D002C083E078
:1077F000F82E8F2DC45FDD4FDEBFCDBFDF91CF915F
:107800001F910F91FF90EF90DF90CF90BF90AF90BE
:107810009F908F900895FB01DC0102C005900D92AE
:1078200041505040D8F70895F999FECF92BD81BDDF
:10783000F89A992780B50895262FF999FECF1FBA97
:1078400092BD81BD20BD0FB6F894FA9AF99A0FBE89
:0878500001960895F894FFCFA2
:1078580080C0A80101FFFFFF00DEADBEEFFEEDC056
:0C786800A801CD00000000000007D008BF
:040000030000700089
:00000001FF
