:10700000A9C1000044C3000042C3000040C3000007
:107010003EC300003CC300003AC3000038C3000078
:1070200036C3000034C3000032C3000030C3000088
:107030002EC300002CC300002AC3000028C3000098
:1070400026C3000024C3000022C3000020C30000A8
:107050001EC300001CC300001AC3000018C30000B8
:1070600016C3000014C3000012C3000010C30000C8
:107070000EC300000CC300000AC3000008C30000D8
:1070800006C3000004C3000002C3000000C30000E8
:10709000FEC20000FCC20000FAC20000F8C20000FC
:1070A000F6C20000F4C20000F2C2000053504920B2
:1070B000696E697420646F6E6500205370693A20B0
:1070C00000526573706F6E73652073656E74005344
:1070D000656E742046696E616C2041434B005365B8
:1070E0006E742041434B000005000346756C6C0034
:1070F000000500044F70636F64653F0000050000E9
:107100004572726F72006C544D20006E544D200019
:107110005469636B20005574696C3A2000556E6B9E
:107120006E6F776E204D43552077697468206172C9
:107130006961646E652C2056657273696F6E2030CC
:107140002E35004D61696E3A20004E6574776F727E
:107150006B20696E697420646F6E650009202020C1
:10716000204D41433A200009476174657761793ABF
:10717000200009205375626E65743A20000941644D
:1071800064726573733A20004275696C742D696E80
:107190002073657474696E677300454550524F4D96
:1071A0002073657474696E677300204E65743A20AD
:1071B00000496E697420736F636B657420746F206F
:1071C000706F7274200056616C696420696D61672C
:1071D000650020696E7374656164206F6620307885
:1071E00039340020696E7374656164206F662030E5
:1071F00078304300207769746820004661696C65C7
:1072000064206174200056616C643A2000496E76F7
:10721000616C6964206F70636F64652000457272F1
:107220006F720041636B6E6F776C656467650046D3
:107230006C617368696E6720636F6D706C657465EF
:10724000005061636B6574206C656E6774682061C3
:10725000646A757374656420746F20005772697472
:10726000696E6720646174612066726F6D2061646D
:1072700064726573732000466C61736820697320C3
:1072800066756C6C004461746120626C6F636B00A6
:107290004368616E67656420746F20706F7274203C
:1072A0000057726974652072657175657374005258
:1072B00065616420726571756573740020616E6428
:1072C0002064617461206C656E67746820002077AB
:1072D000697468206F70636F646520005468697317
:1072E00020697320626C6F636B2000536574207596
:1072F000702072657475726E206164647265737358
:10730000004F766572666C6F770050726F636573BD
:1073100073696E67207061636B6574206F6620739C
:10732000697A6520000944617461506F72743A2073
:1073300000544654502073657276657220696E69F8
:107340007420646F6E6500546674703A20000D0AF4
:107350000030780011241FBECFEFDAE0DEBFCDBFD2
:1073600011E0A0E0B1E0EEECFEE702C005900D9266
:10737000AC31B107D9F721E0ACE1B1E001C01D9219
:10738000A832B207E1F701D0A0C5CDB7DEB7C45629
:10739000D109DEBFCDBF112484B714BE99E288E1C4
:1073A0000FB6F894A895809360000FBE909360008C
:1073B0002FEF83EC99E0215080409040E1F700C02E
:1073C000000084E08093810080E090E068D588230D
:1073D00021F060E080E090E06AD581E090E05FD548
:1073E000843021F064E081E090E061D582E0809318
:1073F000C80088E18093C90086E08093CA0080E1DC
:107400008093CC006DE171E783E491E78BD18FE04D
:1074100085B987E084B92E9A269A5C9A549A479A3D
:107420003F9A81E08DBD6CEA70E78AEB90E77AD1F4
:1074300061D22CD210921F0110921E016624639417
:10744000FE0131967F0144E0742EA12CB12C809175
:107450001F018111A1C086E290E08ED1892B09F431
:107460009BC060921E0168E682E090E06CD182FFD2
:107470000FC044E06CE682E090E094D1FFEF27E893
:1074800083E1F15020408040E1F700C00000EBCFE5
:1074900086E290E071D1D6D2582E84E290E06CD191
:1074A0008C0192E0591669F1951520F0E1E05E1625
:1074B00089F007C0F3E05F16B1F024E0521609F43A
:1074C000D0C04AE050E06CEF70E7C701DFD43AE08B
:1074D000432E11C04CE050E060EF70E7C701D6D4F6
:1074E0002CE0422E08C049E050E067EE70E7C7018B
:1074F000CDD499E0492E4701342C6801CE18DF081D
:107500001FC080912201909123012091240130918C
:1075100025012817390720F4909325018093240131
:107520006EED70E787E493E7FDD019827A8280914F
:107530002201909123019B838C8384E0482EDBCF32
:10754000C601880D991D3A94FFEF3F1631F0F40102
:1075500041914F0164E726D1F3CFB801640D711D4D
:1075600084E290E037D140E26CE681E090E01AD10D
:1075700068E681E090E0E7D08111FACF61EC70E736
:1075800087E493E7CFD024E0521206C040E16CE6D6
:1075900081E090E007D168C0F50185919491019652
:1075A000E9F080912001909121010A97B8F082E0E2
:1075B00090E075D48E3E09F457C080911E01813051
:1075C00069F498D163D110928500109284001092D2
:1075D000210110922001A89510921E01A895A8954E
:1075E000C0908400D0908500D4FE04C088B180583B
:1075F00088B901C0479880901C0190901D01C81463
:10760000D90450F500912001109121010F5F1F4F07
:10761000109321010093200160E171E786E191E779
:1076200081D0B80180E090E044E04FD06BE071E79A
:1076300086E191E777D0C601A0E0B0E044E0BC016C
:10764000CD0143D066E071E786E191E76BD0B401EC
:1076500080E090E044E039D0D0921D01C0921C013E
:10766000F6CE6FEC70E75ECF0FB6F894A8958091D8
:107670006000886180936000109260000FBE03D1AB
:1076800080E090E0CC59DF4FDEBFCDBF0895B8CC8D
:107690009091C80095FFFCCF8093CE0008950F9382
:1076A0001F93CF93DF938C01D0E0F801ED0FF11D14
:1076B000C491CC2311F08C2FEBDFDF5FC111F5CF2C
:1076C000DF91CF911F910F910895CF92DF92EF92AA
:1076D000FF92CF936B017C01C42F81E593E7DFDF3D
:1076E000CC23D1F08C2F90E00197880F991F880F41
:1076F000991FA701960104C0569547953795279580
:107700008A95D2F7DA01C9018F708A3008F0895F53
:10771000805DBEDFC150E4CFCF91FF90EF90DF904E
:10772000CF9008950F931F93CF93DF938C01EB01BC
:107730008EE493E7B4DFC801B2DFCE01DF91CF91D1
:107740001F910F91ACCF20E52CBD2E98292F332708
:107750002EBD0DB407FEFDCF8EBD0DB407FEFDCFCF
:107760006EBD0DB407FEFDCF1EBC0DB407FEFDCFF0
:107770002E9A8EB51CBC08950F931F93CF938C0146
:1077800068E6E1DFC82F68E6C8010196DCDF2C2F30
:1077900030E0322F2227A901482BCA01CF911F9137
:1077A0000F91089520E52CBD2E98292F33272EBD4B
:1077B0000DB407FEFDCF8EBD0DB407FEFDCF6EBD2F
:1077C0000DB407FEFDCF4EBD0DB407FEFDCF2E9AC2
:1077D0001CBC08950F931F93CF93DF93EC018B0193
:1077E000472F55276CE6CE01DDDF402F6CE6CE013A
:1077F0000196DF91CF911F910F91D4CFCF93DF935B
:10780000EC0161EB71E787E493E78CDFBE0180E078
:1078100090E044E05ADF40E16CE681E090E0C2DFB6
:1078200068E681E090E08FDF8111FACF4FEF6CE6E0
:1078300082E090E0B7DF42E06CE680E090E0B2DF0B
:10784000BE0184E090E0C6DF41E06CE681E090E0BC
:10785000A9DF68E681E090E076DF8111FACF68E683
:1078600083E090E070DF823229F040E16CE681E055
:1078700090E098DF68E683E090E065DF8232B1F661
:10788000DF91CF910895EE27FF270994CF9385E4E8
:1078900090E0B4DF87E190E002D38B3B91F489E183
:1078A00090E0FDD2C82F88E190E0F9D22C2F30E093
:1078B000322F2227280F311D3093270120932601D4
:1078C00006C089E797EB909327018093260161E337
:1078D00073E787E493E726DF65E273E787E493E7DE
:1078E00021DF609126017091270180E090E044E063
:1078F000CF91EBCE0F931F93CF93DF9383E090E074
:10790000CED28535A9F484E090E0C9D28A3A81F4D8
:1079100001E011E0C5E0D0E0CE01C1D2F8018193D1
:107920008F012196C731D105B9F76AE971E702C025
:1079300068E871E78AEA91E7F5DE6DE771E78AEAC0
:1079400091E7F0DE0FE011E0CFE0F80161918F01E7
:1079500070E080E090E042E0B8DEC23111F08EE2EB
:1079600097DECF5FC33189F762E771E78AEA91E773
:10797000D9DE05E011E0C5E0F80161918F0170E00A
:1079800080E090E042E0A1DEC83011F08EE280DEBF
:10799000CF5FC93089F767E671E78AEA91E7C2DE0F
:1079A00001E011E0D1E0F80161918F0170E080E029
:1079B00090E042E08ADED43011F08EE269DEDF5FD3
:1079C000D53089F76CE571E78AEA91E7ABDE09E02B
:1079D00011E0F80161918F0170E080E090E042E0F9
:1079E00074DECE3011F08EE253DECF5FCF3089F7F8
:1079F00000E011E0C0E0D0E0F80141918F0164E0C7
:107A0000CE01D0DE2196CC31D105B1F7C0E0DC2F1C
:107A1000D295DD0FD07ED45F42E06D2F8EE190E0F5
:107A2000C1DE42E06D2F8FE190E0BCDECF5FC83059
:107A300071F76AE471E78AEA91E7DF91CF911F91CC
:107A40000F9170CE4F925F926F927F928F929F9222
:107A5000AF92BF92CF92DF92EF92FF920F931F935C
:107A6000CF93DF93CDB7DEB7CC50D240DEBFCDBFD2
:107A70008C016AE073E787E493E754DEB80180E0A5
:107A800090E044E022DE0115184028F061E073E741
:107A900087E493E747DE88E290E06EDE8C01DE014A
:107AA00011965D016E01B3EFCB1ABDEFDB0A7501D4
:107AB0004C018A189B08C4018E0D9F1DCE14DF0453
:107AC00031F068E740DEF70181937F01F4CFB80120
:107AD000645F7D4F88E290E07DDE40E46CE681E00B
:107AE00090E060DE68E681E090E02DDE8111FACF63
:107AF00075010CE010E0D7014D917D016CE6C801E5
:107B000051DE0F5F1F4F02311105A9F76BEE72E7CF
:107B100087E493E707DECF80D12CDC2CCC2488854A
:107B2000C80ED11CE984F12CFE2CEE248A85E80EC7
:107B3000F11C0B8510E0102F00278C85080F111DFC
:107B40006CED72E787E493E7EDDDB80180E090E04B
:107B500044E0BBDD8EEC92E7A2DDB70180E090E06F
:107B600044E0B3DD8CEB92E79ADD4601B4E08B1A7A
:107B700091082401612C712C44E0C301B201A5DD00
:107B8000E3E0EE16F10489F40933110560F4809105
:107B90002401909125010817190728F001968017F4
:107BA000910708F054C0E12CF12CF5E0CF16F2E07B
:107BB000DF0608F051C082E0E816F104A9F040F4B5
:107BC000A1E0EA16F10409F049C06FEA72E73AC091
:107BD000B4E0EB16F104A1F1E5E0EE16F10409F0D2
:107BE0003DC06DE172E72EC01092850010928400B6
:107BF0001092210110922001A89561EA72E787E4B2
:107C000093E790DD6FEF82E090E051D10091260183
:107C100010912701C801F2DD60E972E787E493E77C
:107C200081DDB80180E090E044E04FDD1092250155
:107C300010922401109223011092220112E010C12F
:107C400063E272E787E493E76DDD10E009C195E038
:107C5000C91692E0D90698F0E12CF12C6DE072E79C
:107C600087E493E75FDDB70180E090E044E02DDD3D
:107C70008091260190912701C1DD11E0F1C01092A1
:107C80008500109284001092210110922001A89585
:107C900065E872E787E493E745DD109323010093DD
:107CA0002201015011096801CC0CCD2CCC1CDD083F
:107CB000D194E12CF12C7601DD24CC2420E030E0BD
:107CC00099E0000F111F221F331F9A95D1F7222729
:107CD0003327C02AD12AE22AF32A4C0C5D1C6E1CE1
:107CE0007F1CF1E04F16F0E75F066104710438F085
:107CF00067E772E787E493E715DD13E0B1C06CE551
:107D000072E787E493E70EDD46E0C701B601DDDCEC
:107D1000811482E0980610F414E001C012E0C4015E
:107D20008F779927892B21F09FEF891A990AF7CF2E
:107D300061E472E787E493E7F5DCC401A0E0B0E01A
:107D400044E0BC01CD01C1DCC114D104E104F10463
:107D500009F046C0F501712C04850C30B9F06BEFC9
:107D600071E786E092E7DEDC672D70E080E090E06E
:107D700044E0ABDC84EF91E792DC602F70E080E0C0
:107D800090E044E0A2DC83EE91E71DC00585043954
:107D9000E1F06BEF71E786E092E7C4DC672D70E0FD
:107DA0006F5F7F4F072E000C880B990B44E08DDC32
:107DB00084EF91E774DC602F70E080E090E044E0B5
:107DC00084DC82ED91E76BDC0BC0A4E07A0E349684
:107DD000B4E37B12C1CF66EC71E786E092E7A2DCE8
:107DE00020E030E041E053E065E071E1281539051D
:107DF00060F5F501858590E0982F8827E4858E2B26
:107E0000F6010C0140935700E89511242E5F3F4F77
:107E1000C9018F779927892B89F4EE57F10950937F
:107E20005700E89507B600FCFDCF60935700E89532
:107E300007B600FCFDCF70935700E895F2E0AF0E57
:107E4000B11C82E0C80ED11CD1CF143049F46FE2CE
:107E500072E787E493E766DC6EEE82E090E027D07D
:107E6000812FC45FDD4FDEBFCDBFDF91CF911F916A
:107E70000F91FF90EF90DF90CF90BF90AF909F90C9
:107E80008F907F906F905F904F900895FB01DC0181
:107E900002C005900D9241505040D8F70895F999CD
:107EA000FECF92BD81BDF89A992780B50895262FFF
:107EB000F999FECF1FBA92BD81BD20BD0FB6F894CF
:0E7EC000FA9AF99A0FBE01960895F894FFCF32
:107ECE0080C0A80101FFFFFF00DEADBEEFFEEDC0DA
:0C7EDE00A801CD00000000000007D00843
:040000030000700089
:00000001FF
